:020000040800F2
:10000000B807002001010008B30B0008E90500084B
:10001000B10B0008210400089B120008000000003A
:1000200000000000000000000000000009110008AE
:100030009505000800000000090E00080D110008D9
:100040001B0100081B0100081B0100081B01000820
:100050001B010008850E00081B0100081B01000899
:100060001B0100081B0100081B0100081B01000800
:100070001B0100081B0100081B0100081B010008F0
:100080001B0100081B0100081B0100081B010008E0
:100090001B0100081B0100081B0100081B010008D0
:1000A0001B0100081B0100081B0100081B010008C0
:1000B0001B010008051200081B0100081B010008B5
:1000C0001B0100081B0100081B0100081B010008A0
:1000D0001B0100083D1200081B01000899120008CE
:1000E0001B0100081B0100081B010008DFF80CD0F1
:1000F00000F0C4F800480047A1160008B807002027
:100100000648804706480047FEE7FEE7FEE7FEE7B1
:10011000FEE7FEE7FEE7FEE7FEE7FEE7BD110008AB
:10012000ED00000840EA01039B0703D009E008C97D
:10013000121F08C0042AFAD203E011F8013B00F8AC
:10014000013B521EF9D27047D2B201E000F8012BF8
:10015000491EFBD270470022F6E710B513460A4647
:1001600004461946FFF7F0FF204610BD034611F87C
:10017000012B00F8012B002AF9D118467047000026
:1001800070B500B91068002512E00B4602E0A642E7
:1001900003D05B1C1C78002CF9D1E3B22B4305D0B3
:1001A0002CB125B1002100F8011B04E00546401CDC
:1001B0000678002EE9D11060284670BD004ADFE7BE
:1001C0001400002070B5064601F07CF8046805466E
:1001D0000A220021304600F018F82C6070BD30B5BE
:1001E0000B46014600202022012409E021FA02F5F5
:1001F0009D4205D303FA02F5491B04FA02F528448F
:10020000151EA2F10102F1DC30BD2DE9F047914647
:100210000F4680460446002614F8015B2DB100F01D
:100220003FF80068405DC007F6D12B2D02D02D2D80
:1002300018D0641E4A463946204600F035F827B1EA
:100240003968A14201D1C7F8008071054FF002045E
:100250000BD54042002803DD01F034F80460A0070C
:10026000BDE8F08746F48066E4E70028F8DA01F09C
:1002700029F804606FF00040F2E70000064C074DDB
:1002800006E0E06840F0010394E807009847103466
:10029000AC42F6D3FFF72EFF8C190008AC1900080A
:1002A00000487047881900082DE9F05F8246007801
:1002B000002715468B460AF10104B946302801D0C3
:1002C0009DB113E014F8010B0127782803D05828BA
:1002D00001D045B10AE00DB1102D07D1002710253E
:1002E00014F8010B02E0082500E00A250026B046BC
:1002F0000EE005FB080005FB06F1012701EB1046A7
:100300001FFA80F8B6F5803F00D3B94614F8010B08
:10031000294600F018F80028EBDABBF1000F05D0F1
:100320000FB1641E00E05446CBF80040B9F1000F55
:1003300006D000F0C7FF02210160C81EBDE8F09F93
:1003400048EA0640FAE73A2800D2303820F0200286
:10035000412A01D3A2F13700884201D34FF0FF3088
:100360007047000070B5184D0024687810B3A87865
:10037000164E022806D0042817D0062820D01528AB
:1003800013D11BE095F80111681D091F01F054F904
:100390000D4995F80121491C515C884203D100F0B8
:1003A000A3FC062000E01520706085F801416C7008
:1003B00085F8024185F801416C7070BD0420F3E7B7
:1003C00085F801416C70F5E72400002000380140F9
:1003D00070B5084C00252078452808DD4F2806D048
:1003E000552804D104F58670406F00F01BF8257085
:1003F00070BD00002400002070B5084D48F2800454
:100400002146284600F08CF90A2000F059FA2146CE
:100410002846BDE8704000F083B9000000080140A4
:10042000FEE700002DE9F04186B0002125A40091EF
:1004300001911ECC02AD85E81E00024625A168464A
:1004400000F02CFFC4B204F111008046074601F011
:1004500085F9214E054602207060FFB201468DF8F5
:10046000057001A801F0C2F9102202A92846FFF781
:1004700059FE2246694605F11000FFF753FE29197F
:100480003B2008743946284601F0B0F93068C0F3C3
:10049000C0100028FAD04146284601F0CDF870601F
:1004A0000E48642290F8081151430D4A1278B1FBAE
:1004B000F2F14900C0F80411284601F0C9F806B06D
:1004C000BDE8F0815245513D434F4E3B494E564F9A
:1004D0004943453D256400000038014024000020C8
:1004E0000C00002070B50F4D48F2800421462846CC
:1004F00000F016F90A2000F0E3F92146284600F042
:100500000FF9502000F0DCF92146284600F008F9E8
:100510000A2000F0D5F921462846BDE8704000F0D9
:10052000FFB80000000801400E4903220878401C73
:10053000B0FBF2F302FB130008700B4940B1012835
:100540000AD002280CD104230B614A6100F0BABC26
:1005500001220A610622F8E702220A610522F4E775
:1005600070470000000000200008014070B5084DF1
:1005700048F280042146284600F0D2F8322000F0EC
:100580009FF921462846BDE8704000F0C9B8000038
:10059000000801407047000001490420486070478E
:1005A0000038014070B50F4D48F2800421462846BE
:1005B00000F0B6F8642000F083F92146284600F0E8
:1005C000AFF8642000F07CF92146284600F0A8F836
:1005D000642000F075F921462846BDE8704000F01F
:1005E0009FB8000000080140FEE70000044908B57C
:1005F0008A6902438A6189690140009108BD00004F
:1006000000100240044908B58A6902438A61896979
:100610000140009108BD000000100240F0B50A68DA
:10062000C2F30F2595FAA5F2B2FA82F369E001222E
:100630009A402A4264D0082B03D240F201129A4019
:1006400006E0A3F108024FF00114944044F08062E8
:1006500092FAA2F700EB1264B7FA87F74FEA870C19
:100660000F27266807FA0CF7BE4392FAA2F7D1F8D3
:1006700004E0B7FA87F7BF000EFA07FE46EA0E0657
:1006800026600E69C7684FEA122C9CFAACFCBCFAD3
:100690008CFC27EA122706FA0CF63743C7604E682F
:1006A000012E01D0092E2BD192FAA2F7B7FA87F7C3
:1006B0004FEA870C032707FA0CF72668D1F808E001
:1006C000BE4392FAA2F7B7FA87F7BF000EFA07FE09
:1006D00092FAA2FC46EA0E06BCFA8CFC4FEA8C0E9B
:1006E0004FF0040C26600CFA0EFC92FAA2F2B2FA59
:1006F00082F2CF68920026EA0C0697403E432660BD
:100700005B1C35FA03F292D10120F0BD8068090A22
:1007100081430804000C01D000207047012070477D
:10072000C268C1F30F214A40C26070474FF47A712A
:10073000B0FBF1F14FF0E020491E416100218161E1
:1007400005210161704700B5034600F089FB186080
:1007500000F05CFB586000F067FB9860586800F0A0
:1007600071FBD86000BD00000149086070470000BF
:1007700010000020F0B50268154B164C164D4FF0D6
:100780008046984205D0B04203D0A04201D0A84292
:1007900003D14F6822F070023A43984205D0B0422C
:1007A00003D0A04201D0A84203D1CC6822F4407209
:1007B000224302608A68C2620A888262984201D13A
:1007C000097C0163416941F0010141610120F0BDF3
:1007D000002C014000040040000800402DE9FF41CA
:1007E0000446C0680D460026C0F34030F0BBE968FF
:1007F0006868E2680843296941F20C639A4311432F
:100800000843E060A868216921F440510143216157
:100810006869616921F44071014361616846FFF7CD
:1008200092FF2448844201D1039806E02248844282
:1008300002D02248844238D10298B8B12A68AAB1BD
:1008400000EBC00101EB00119200B1FBF2F3642058
:10085000B3FBF0F3B1FBF2F56FF018077B43012611
:1008600005EB8305322303EB051500E01DE0B1FB2A
:10087000F2F7B5FBF0F5B7FBF0F705F0F00505EB87
:100880000715B1FBF2F7B1FBF2F1B1FBF0F16FF03C
:100890001802514307EB810103EB0111B1FBF0F0AA
:1008A00000F00F00284480B2A06004B03046BDE8DC
:1008B000F081000000380140004400400048004042
:1008C00008B54FF0E0210A690092421C00D0401C9C
:1008D0000A69D20300D5401E0028F9D108BD0000E6
:1008E0002DE9F04186B014216846FFF734FC102052
:1008F000FFF77CFE2020FFF779FE0420FFF776FE4D
:100900000820FFF773FE21481F494FF4005242614F
:100910001F4E87227261DFF87C80C214326101258C
:1009200000240227CDE90015CDE90274049469463C
:10093000FFF774FE40F2077003948DE8A10069464A
:100940003046FFF76BFE47F67800009008200190D4
:10095000694604943046FFF761FE48F28000CDE915
:100960000005CDE90274694604943046FFF756FE4F
:100970000320CDE90204CDE9008569463046FFF742
:100980004DFE06B0BDE8F0812000200400100140BB
:10099000000801400800080410B500F02FF90022FB
:1009A000114600F012F90146272000F02FF9272008
:1009B00000F000F900F022F90022114600F005F9DC
:1009C0000146252000F022F9252000F0F3F800F080
:1009D00015F90022114600F0F8F80146052000F054
:1009E00015F9052000F0E6F800F008F9002211469C
:1009F00000F0EBF801461D2000F008F9BDE81040BA
:100A00001D2000F0D7B8000010B586B0142168464C
:100A1000FFF7A1FB1548C16941F00201C161C0693E
:100A2000134900F00200059048F6A040ADF8000020
:100A30000020CDE901010F4C039069462046FFF7E5
:100A400099FE206820F080002060A06844F2070131
:100A50008843A060606820F0700040F02000606073
:100A6000A06820F08000A06006B010BD0010024019
:100A7000F401F0FF0004004030B58BB0182105A848
:100A8000FFF769FB14216846FFF765FB4FF48040D0
:100A9000FFF7B8FD0420FFF7B5FD184800900920C6
:100AA000019003200024CDE90204154D6946284633
:100AB000FFF7B4FD134800900420019069462846D2
:100AC000FFF7ACFD4FF4E130CDE905040C20CDE992
:100AD000084007940A940C4C05A92046FFF77EFEB7
:100AE000206920F490402061606920F02A00606154
:100AF000E06840F40050E0600BB030BD020002043A
:100B000000080140040004040038014030B58DB0F5
:100B1000182105A8FFF71FFB14216846FFF71BFBF0
:100B20001E48C16941F48021C161C06900F4802080
:100B30000B900820FFF766FD1948009009200190EE
:100B400003200024CDE90204164D69462846FFF72C
:100B500065FD154800900420019069462846FFF77E
:100B60005DFD4FF41650CDE905040C20CDE9084099
:100B700007940A940D4C05A92046FFF72FFE206923
:100B800020F490402061606920F02A006061E068F4
:100B900040F40050E0600DB030BD00000010024095
:100BA00004000404000C0140080008040048004050
:100BB000FEE7704700F01F020121914040098000CC
:100BC00000F1E020C0F80011704730B500F00703D5
:100BD000C3F10704042C00D90424181D072801D2EE
:100BE000002300E0DB1E012505FA04F0401E08404A
:100BF00098409D406D1E1540284330BD0248006856
:100C0000C0F30220704700000CED00E00907090E58
:100C1000002806DA00F00F0000F1E02080F8141D33
:100C2000704700F1E02080F80014704730B50446AA
:100C300001784078D022303800EB800002EB400091
:100C4000084424498DB0244D81F80801607830288B
:100C50001ED022A02C2200680B9021496846FFF785
:100C600061FA60788DF80F0020788DF8100002206E
:100C7000686001460BA800F0B9FD2C21684600F021
:100C8000B5FD2868C0F3C0100028FAD02C211BE065
:100C900014A0134900680B902C222C316846FFF7F2
:100CA00041FA20788DF80F000220686001460BA8F9
:100CB00000F09CFD2B21684600F098FD2868C0F3E9
:100CC000C0100028FAD02B21684600F0B5FC6860FF
:100CD0000DB030BD2400002000380140002C000081
:100CE00010180008002B00002DE9FC41424C94F83C
:100CF0000101001F00F032FD94F801210646611D3C
:100D0000121FFFF70FFA01AA3CA13046FFF738FA8D
:100D100007466A463AA1FFF733FA04F586755FE0A5
:100D200001784139142951D2DFE801F0354C6127AF
:100D30002D5050314750505039505023500A413DAA
:100D40004078432810D0452840D12E480099FFF71D
:100D50000DFA6878412805D0452803D04F2801D0E6
:100D6000552833D1207031E00098FFF72BFA6860E6
:100D70002CE024480099083002E0224800991B30FA
:100D8000FFF7F4F922E01F4800992930F8E71D48E1
:100D900000993930F4E71B4800995330F0E71948BF
:100DA00000995B30ECE7174800996A30E8E7009853
:100DB000FFF708FA85F8720008E00098FFF702FADA
:100DC000686703E00098FFF7FDF9A86701AA0BA187
:100DD0000020FFF7D5F907466A4609A1FFF7D0F9C9
:100DE000002F9DD1304600F033FCBDE8FC81054862
:100DF00000997C30C4E70000240000203B00000084
:100E00003D0000003001002070470000044949689F
:100E1000044A01F0F0010909515CC8407047000024
:100E200000100240EC18000804494968044A01F423
:100E3000E06102EB11210978C840704700100240C0
:100E4000FC18000804494968044A01F4605102EBA7
:100E5000D1210978C840704700100240FC180008F2
:100E60000648406810F00C01054805D0042903D05D
:100E7000082901D100F008B87047000000100240B6
:100E800000127A00704700000B48416811F480326C
:100E90000A4909D0B2F5803F06D14168084AC1F33A
:100EA0004041491CB2FBF1F14068022200F470108D
:100EB00002EB9040484370470010024000093D009B
:100EC00000127A002DE9F84F8D4C002701258B4A3E
:100ED00040F6080141F2100A42F2200B4FF03008B0
:100EE000A61C38B1012856D002287AD0BDE8F84FA8
:100EF000FFF758BB91461046FFF708FC80B1A06889
:100F000050B16168081A322806D9FFF775FA60787F
:100F1000854365703120C6E06068A060BDE8F88F49
:100F200051464846FFF7F2FB78B1A0680028F3D09D
:100F30006168081A3228EFD9FFF75EFA60788543B6
:100F400065703420AFE0A760E8E759464846FFF7F0
:100F5000DDFB68B1A0680028DED06168081A32287D
:100F6000DAD9FFF749FA60788543657037209AE04F
:100F700044F240014846FFF7C9FB0028CED0A068E4
:100F80000028C9D06168081A3228C5D9FFF7AAFA23
:100F9000FFF702FBACE091461046FFF7B7FB68B1E4
:100FA000A0680028B8D06168081A3228B4D9FFF7C1
:100FB00023FA607885436570322074E051464846D4
:100FC000FFF7A4FB70B1A0680028A5D06168081ADB
:100FD0003228A1D9FFF710FA607885436570352073
:100FE00061E028E059464846FFF790FB68B1A068E9
:100FF000002891D06168081A32288DD9FFF7FCF9D2
:1010000060788543657038204DE044F240014846E1
:10101000FFF77CFB002881D0A068002887D061689A
:10102000081A322887D9FFF7E7F960788543657099
:1010300006F8058087E791461046FFF767FB68B121
:10104000A068002888D06168081A322888D9FFF77C
:10105000D3F9607885436570332024E051464846D3
:10106000FFF754FB68B1A06800288AD06168081AAD
:1010700032288AD9FFF7C0F9607885436570362039
:1010800011E059464846FFF741FB70B1A0680028BF
:1010900088D06168081A322888D9FFF7ADF96078DE
:1010A00085436570392070554DE744F2400148464C
:1010B000FFF72CFB0028AED0A068002885D061681F
:1010C000081A322885D9FFF751FA3078302802D132
:1010D0007078302805D00A480221801CFFF7A6FD51
:1010E00006E008A0042100680090684600F06CFB50
:1010F000677086F8008086F8018024E700080140C8
:10110000000000204E4F500A70470000024801685E
:10111000491C01607047000004000020244810B5FD
:10112000016821F0070141F00201016000682148D7
:10113000016841F4803101600168C1F34041002938
:10114000FAD0416821F47C1141F4E8114160016852
:1011500041F0807101600168C1F340610029FAD05B
:10116000416821F0F0014160416821F4E06141F4FF
:1011700080614160416821F460514160416821F023
:10118000030141F002014160416801F00C010829AE
:10119000FAD1094C2046FFF7C9FA4FF0E02108695F
:1011A00040F0040008612046BDE81040FFF7DCBABB
:1011B000002002400010024000A24A040D480168CD
:1011C00041F00101016041680B4A11404160016832
:1011D0000A4A11400160016821F4802101604168E0
:1011E00021F4FE0141604FF41F0181600449C003F6
:1011F00008607047001002400000FFF8FFFFF6FE95
:1012000008ED00E00A48016911F0010F0FD06FF0FE
:10121000010101610749D1F80401002807D0064AFD
:10122000D36883F40063D360401EC1F804017047A3
:1012300000040040240000200008014038B5134895
:101240000168134AC1F3401312494BB10368C3F359
:1012500040132BB144680B78D5185B1CAC700B7035
:10126000C368C3F30013002B0FD00368C3F300134C
:10127000002B0AD00B7882F8013100230B7001217A
:101280005170016800914068009038BD00380140FD
:10129000240000200D0000207047FEE70FB4084B2B
:1012A00010B504A902AA039800F020F8044602A988
:1012B000002000F0BCF9204610BC5DF814FB0000D3
:1012C0002F160008004870472000002002E008C8E0
:1012D000121F08C1002AFAD170477047002001E0B0
:1012E00001C1121F002AFBD1704700002DE9FF4FFA
:1012F0008BB088460546002606E025280BD0DDE9A0
:101300000D1290476D1C761C28780028F5D10FB07F
:101310003046BDE8F08F0024A146A2460122AE4926
:1013200000E0044315F8013F203B02FA03F00842B5
:10133000F7D128782A2810D06FF02F022878A0F152
:101340003001092915D809EB890102EB410144F06C
:10135000020400EB01096D1CF0E758F8041B5FEA7A
:10136000010903D544F40054C9F1000944F0020412
:101370006D1C28782E2817D115F8010F44F00404AD
:101380002A280ED06FF02F022878A0F13001092909
:101390000AD80AEB8A0102EB410100EB010A6D1C3D
:1013A000F2E758F804AB6D1C28786C280FD006DCE7
:1013B0004C2817D068280DD06A2814D104E074286E
:1013C00010D07A280FD10DE044F400140AE044F460
:1013D000801401E044F440146978814202D104F59C
:1013E00080146D1C6D1C2878692865D006DC0028E7
:1013F0008DD0632827D0642806D15DE06E2808D000
:1014000073282AD0752877D0DDE90D129047761C15
:10141000E0E0C4F30250022809D003280DD0D8F828
:10142000001004280DD00E6008F10408D2E0D8F8AE
:101430000010F217C1E90062F6E7D8F800100E803C
:10144000F2E70E70F0E718F8041B8DF8001000208A
:101450008DF80100EB46012003E058F804BB4FF083
:10146000FF3061074FF0000701D40AE07F1C5745A9
:101470000DDA8742FADB1BF807100029F6D106E0E7
:101480007F1C8742FCDB1BF807100029F8D1DDE93F
:101490000D23A9EB07008146214600F0B1F8304446
:1014A000C61904E0DDE90D121BF8010B90477F1E01
:1014B000F8D22146484688E058F8040BC4F302519C
:1014C0004FF00A0B032900D100B2042900D140B229
:1014D000002802DA40422D2102E0210505D52B210A
:1014E0008DF82410012104E006E0E10710D020214E
:1014F000F6E708AF089113E058F8040BC4F3025163
:101500004FF00A0B032900D180B2042900D1C0B2E8
:101510000021EEE75946FEF762FE303107F8011D63
:101520000028F7D1ADEB070000F1200B600702D5D2
:1015300024F4803401E04FF0010ADA4502DDAAEB21
:101540000B0000E00020824600EB0B0108980144EC
:10155000A9EB01000A90E00306D4DDE90D23214642
:101560000A9800F04DF806444FF0000908E009A978
:1015700011F80900DDE90D12904709F10109761C07
:1015800008998945F3DBE0030CD5DDE90D232146FD
:101590000A9800F035F8064404E0DDE90D12302029
:1015A0009047761CBAF10001AAF1010AF5DC05E0CA
:1015B000DDE90D1217F8010B9047761CBBF1000115
:1015C000ABF1010BF4DC0A982146DDE90D2300F0B4
:1015D00005F806446D1C97E6092801002DE9F04145
:1015E000044600251E461746880404D405E0394603
:1015F0002020B0476D1C641EF9D52846BDE8F08157
:101600002DE9F041044600251E469046C80301D549
:10161000302700E02027880404D505E041463846FD
:10162000B0476D1C641EF9D52846BDE8F0810A68F4
:10163000531C0B6010707047034610B50020024623
:1016400002E09C5C6040521C8A42FAD310BD00004C
:1016500010B5002821D0114B0022001F196803E0AB
:10166000814203D80A4649680029F9D152B113686A
:10167000841A9C4204D1006818441060104602E0AD
:10168000506000E0186039B102680B1A934203D130
:101690000B681A4402604968416010BD18000020C0
:1016A000284808B5816941F001018161816901F033
:1016B00001010091C16941F08051C161C0692249B5
:1016C00000F08050009008684FF6FF0210401F4A5B
:1016D00040F44070104308601D48416821F0E0610B
:1016E0004160416841F000714160FFF717FDFFF76D
:1016F000F7F8FFF7C1F9FFF709FAFFF785F9FFF7E8
:101700004BF94FF0E020016941F0020101611148FD
:10171000C16841F01001C160C16841F02001C160A1
:101720000D48C16841F00101C160016841F001014B
:10173000C0F80010FEF7F8FEFEF714FEFEF748FEB4
:10174000F8E70000001002400CED00E00000FA0590
:10175000000001400038014000040040F0B50B30AB
:10176000154D20F007010024144A0FE003688B4256
:101770000BD38B4205D95E1A43184768C3E900674B
:1017800000E04368136002C004E0021D10680028F6
:10179000ECD12046002802D1286808B10020F0BD15
:1017A000064A07481060074A121A22F00702C0E9E9
:1017B000002401202860D7E71C000020180000202A
:1017C000BC010020B803002010B50022064B08E041
:1017D0001C68C4F3C014002CFAD0845C5C60521CFA
:1017E000D2B28A42F4D310BD0048004010B50022A6
:1017F000064B08E01C68C4F3C014002CFAD0845CCB
:101800005C60521CD2B28A42F4D310BD0038014051
:101810005245513D5055523B414D4F554E543D3030
:101820003030303B4D49443D533132313038353022
:101830003B5345525649443D303B00005245513DD3
:101840005055523B414D4F554E543D3030303B4D3D
:1018500049443D53313231303835303B534552568F
:1018600049443D303B0000005245513D5055523BEC
:10187000414D4F554E543D30303B4D49443D533121
:101880003231303835303B5345525649443D303B78
:10189000000000005245513D5055523B414D4F55BF
:1018A0004E543D3030303B4D49443D533132313060
:1018B0003835303B5345525649443D303B000000DB
:1018C0005245513D5055523B414D4F554E543D3080
:1018D0003030303B4D49443D533132313038353072
:1018E0003B5345525649443D303B00000000000048
:1018F00000000000010203040607080900000000C0
:10190000010203040040404040404040404041410B
:1019100041414140404040404040404040404040C4
:10192000404040404005020202020202020202025E
:10193000020202020220202020202020202020025B
:1019400002020202020290909090909010101010EB
:101950001010101010101010101010101010101087
:10196000020202020202888888888888080808081B
:1019700008080808080808080808080808080808E7
:10198000020202024000000005190008AC1900081C
:101990000000002024000000CC120008D01900082C
:1019A0002400002094070000DC1200080000303002
:1019B00000000000000000000500000000A24A0432
:1019C0000000000000000000000000000000000017
:04000005080000ED02
:00000001FF
